:100000009FEF00F00E50016A0D5C03E20DC000F09E
:100010000CD0006A080E0F6E0D3600360E50005CD4
:10002000D8B0006E01360F2EF7D71200949C8B9C2F
:10003000080E016E00D00000018E0ED0019E0D3220
:10004000D8B08B8CD8A08B9C018C06D0019C012E43
:10005000F6D700D000008B8C500EE96EE92EFED74B
:1000600000D001BEEBD701BCF1D71200200E08A8CA
:10007000300E096E07C000F007AE08D0001E002A3F
:1000800000C007F02D0E096E088E0880015007C0D1
:100090000DF0640E0E6EB6DF00C007F0300E0124C6
:1000A0000A6E07C00DF00A0E0E6EACDF300E002493
:1000B0000C6E300E01240B6E09C000F0300E0A5C8D
:1000C00004E0088208BE088412D009C00AF0200E9D
:1000D000096E300E0B5C04E0088008BE088207D071
:1000E000D8A4088004E10AC00BF0200E0A6E08B400
:1000F00005D008B206D008B007D009D009C00DF06D
:1001000095DF0AC00DF092DF0BC00DF08FDF0CC041
:100110000DF08CDFB3EF00F0EA6A080EE96EEF50E5
:100120000DE0060E016E006A002EFED7012EFBD7F1
:100130007B0E006E002EFED7EF2EF3D71200F86A6A
:10014000D09E949C8B8CC150C00B0F09C16E070EC2
:10015000B46E056A0A0E046E310E066E06C007F014
:10016000180E086E83D705C007F0072A0706D8B413
:1001700003D00868D1DFFAD704C008F0CDDFEED78E
:0201800003007A
:020000040030CA
:0E00000000C21E1E008781000FC00FE00F40DF
:00000001FF
;PIC18F4520
;CRC=88A3  CREATED="19-oct.-23 20:31"
