:100000003EEF00F0949C8B9C080E016E00D0000027
:10001000018E0ED0019E0732D8B08B8CD8A08B9C5D
:10002000018C06D0019C012EF6D700D000008B8CED
:10003000010E006EE96AE92EFED7002EFBD7530EA3
:10004000E96EE92EFED700D0000001BEE3D701BC67
:10005000E9D750EF00F0EA6A080EE96EEF500DE0C4
:10006000060E016E006A002EFED7012EFBD77B0E16
:10007000006E002EFED7EF2EF3D71200F86AD09E46
:10008000949C8B8CC150C00B0F09C16E070EB46ECF
:10009000056A0A0E046E4A0E066E06C007F0B2D755
:1000A00005C007F0072A0706D8B403D00868D3DFD5
:0C00B000FAD704C008F0CFDFF0D703003F
:020000040030CA
:0E00000000C21E1E008781000FC00FE00F40DF
:00000001FF
;PIC18F4520
;CRC=5127  CREATED="10-oct.-23 11:23"
