:040000007FEF00F09E
:08000800046ED8CF05F0E0CF33
:1000100006F00001E9CF0CF0EACF07F0E1CF08F0DD
:10002000E2CF09F0D9CF0AF0DACF0BF0F3CF12F01C
:10003000F4CF13F0FACF14F0F5CF15F0F6CF16F099
:10004000F7CF17F000C00EF001C00FF002C010F0A3
:1000500003C011F09DAA30EF00F09EBA6AEF00F0E5
:100060000EC000F00FC001F010C002F011C003F08C
:100070000CC0E9FF07C0EAFF078E08C0E1FF09C016
:10008000E2FF0AC0D9FF0BC0DAFF12C0F3FF13C0B2
:10009000F4FF14C0FAFF15C0F5FF16C0F6FF17C035
:1000A000F7FF045006C0E0FF05C0D8FF1000EA6A61
:1000B0001D0EE96EEF500DE0020E016E006A002E7B
:1000C000FED7012EFBD7970E006E002EFED7EF2E27
:1000D000F3D712009EAA10D01B509EA8FED7AD6E7B
:1000E0001AC01CF01C2A1C06D8B403D01D68DFDF20
:1000F000FAD719C01DF0DBDF9E9A30EF00F0F86AE6
:10010000D09E078EB8960C0EAF6EA20EAC6E900EFF
:10011000AB6E00000000C150C00B0F09C16E070E8E
:10012000B46E950E1B6EC00EF2129D8AFFD70300AF
:020000040030CA
:0E00000000C21E1E008781000FC00FE00F40DF
:00000001FF
;PIC18F4520
;CRC=EB4A  CREATED="20-oct.-23 09:23"
