:0400000063EF00F0BA
:08000800046ED8CF05F0E0CF33
:1000100006F00001E9CF0CF0EACF07F0E1CF08F0DD
:10002000E2CF09F0D9CF0AF0DACF0BF0F3CF12F01C
:10003000F4CF13F0FACF14F0F5CF15F0F6CF16F099
:10004000F7CF17F000C00EF001C00FF002C010F0A3
:1000500003C011F09DAA30EF00F09EBA57EF00F0F8
:100060000EC000F00FC001F010C002F011C003F08C
:100070000CC0E9FF07C0EAFF078E08C0E1FF09C016
:10008000E2FF0AC0D9FF0BC0DAFF12C0F3FF13C0B2
:10009000F4FF14C0FAFF15C0F5FF16C0F6FF17C035
:1000A000F7FF045006C0E0FF05C0D8FF10009EAA6D
:1000B00007D09EAAFED7AECF1CF0956A1CC08CFF5D
:1000C0009E9A30EF00F0F86AD09E078EB8960C0E1C
:1000D000AF6EA20EAC6E900EAB6E00000000C15071
:1000E000C00B0F09C16E070EB46E1C6AC00EF2126F
:0800F0009D8A9E8AFED70300E1
:020000040030CA
:0E00000000C21E1E008781000FC00FE00F40DF
:00000001FF
;PIC18F4520
;CRC=90A2  CREATED="10-oct.-23 10:34"
