:10000000C4EF00F0080E016E050E006E002EFED744
:100010008B989498060E006E002EFED705368B96B0
:10002000D8B09486D8A09496948882A8FED7012E42
:10003000EBD7050E006E002EFED78B98949800002B
:100040009486060E006E002EFED7060E006E002E61
:10005000FED7948882A8FED7016A060E006E002E95
:10006000FED782B601808B9894988B969496120056
:10007000080E066E00C007F09486060E006E002E75
:10008000FED7948882A8FED782B6D88082A6D89060
:100090000136050E006E002EFED794988B98062E22
:1000A000EBD79486060E006E002EFED78B96075077
:1000B000D8A494960000948882A8FED7050E006EFE
:1000C000002EFED78B989498060E006E002EFED759
:1000D0008B9694969AEF00F09486050E006E002E93
:1000E000FED79488060E006E002EFED78B9694964F
:1000F000050E006E002EFED78B989498400E056E6C
:1001000081DF9486050E006E002EFED79488060EC1
:10011000006E002EFED782A8FED78B969496050E11
:10012000006E002EFED78B989498410E056E6ADF04
:10013000006A9ED701C004F094960000948882A8BB
:10014000FED7050E006E002EFED700D0000094866C
:10015000050E006E002EFED704C001F0CFEF00F0B8
:10016000EA6A050EE96EEF500DE0060E016E006AB8
:10017000002EFED7012EFBD77B0E006E002EFED781
:10018000EF2EF3D7D7EF00F0F86AD09EC150C00B26
:100190000F09C16E070EB46E948694889DD701C076
:1001A00004F0936A04C08AFF0A0E056ED9D7F6D709
:0201B00003004A
:020000040030CA
:0E00000000C21E1E008781000FC00FE00F40DF
:00000001FF
;PIC18F4520
;CRC=9D23  CREATED="21-oct.-23 08:46"
