:1000000036EF00F0949C8B9C080E016E00D000002F
:10001000018E0ED0019E0732D8B08B8CD8A08B9C5D
:10002000018C06D0019C012EF6D700D000008B8CED
:10003000500EE96EE92EFED700D001BEEBD701BC11
:10004000F1D748EF00F0EA6A080EE96EEF500DE0D4
:10005000060E016E006A002EFED7012EFBD77B0E26
:10006000006E002EFED7EF2EF3D71200F86AD09E56
:10007000949C8B8CC150C00B0F09C16E070EB46EDF
:10008000056A0A0E046E310E066E06C007F0BAD776
:1000900005C007F0072A0706D8B403D00868D3DFE5
:0C00A000FAD704C008F0CFDFF0D703004F
:020000040030CA
:0E00000000C21E1E008781000FC00FE00F40DF
:00000001FF
;PIC18F4520
;CRC=CFE1  CREATED="10-oct.-23 09:15"
