:1000000038EF00F0080E016E050E006E002EFED7D0
:100010008B989498060E006E002EFED70A368B96AB
:10002000D8B09486D8A09496948882A8FED7012E42
:10003000EBD7050E006E002EFED78B98949800002B
:100040009486060E006E002EFED7060E006E002E61
:10005000FED7948882A8FED7016A060E006E002E95
:10006000FED782B601808B9894988B969496120056
:10007000F86AD09EC150C00B0F09C16E070EB46E56
:1000800094869488010E076EF00E066E4B0E046E79
:100090009486050E006E002EFED79488060E006E24
:1000A000002EFED78B969496050E006E002EFED77E
:1000B0008B989498A00E0A6EA5DF07C008F0096A15
:1000C00007C00AF09FDF06C00AF09CDF04C00AF0F8
:1000D00099DF94960000948882A8FED7050E006EE2
:1000E000002EFED700D000009486050E006E002E74
:0600F000FED7FFD703005C
:020000040030CA
:0E00000000C21E1E008781000FC00FE00F40DF
:00000001FF
;PIC18F4520
;CRC=D30C  CREATED="19-oct.-23 22:22"
