:100000004CEF00F0080E016E050E006E002EFED7BC
:100010008B989498060E006E002EFED708368B96AD
:10002000D8B09486D8A09496948882A8FED7012E42
:10003000EBD7050E006E002EFED78B98949800002B
:100040009486060E006E002EFED7060E006E002E61
:10005000FED7948882A8FED7016A060E006E002E95
:10006000FED782B601808B9894988B969496120056
:10007000EA6A080EE96EEF500DE0060E016E006AA6
:10008000002EFED7012EFBD77B0E006E002EFED772
:10009000EF2EF3D786EF00F0F86AD09EC150C00B68
:1000A0000F09C16E070EB46E94869488076A400EDD
:1000B000066E5A0E046E9486050E006E002EFED754
:1000C0009488060E006E002EFED78B969496050E31
:1000D000006E002EFED78B989498400E086E92DF2B
:1000E00004C008F08FDF94960000948882A8FED7A1
:1000F000050E006E002EFED700D000009486050E7F
:10010000006E002EFED70A0E086EB2D7D4D70300B9
:020000040030CA
:0E00000000C21E1E008781000FC00FE00F40DF
:00000001FF
;PIC18F4520
;CRC=0F4F  CREATED="20-oct.-23 12:00"
